:040000000200313297
:01000B0032C2
:0100130032BA
:01001B0032B2
:03002300020AB915
:03002B000209B512
:20008A00752400E4F52CF52DF52EF52FF530F531F532F533F534F547C200C20BC20C0200F1
:0100AA002E27
:03002E00020DB60A
:2000AB0075FFDE75FFAD22758400758840758921758E18758DAF75840075C80475C918757A
:2000CB00CADC75CB0B75CCDC75CD0B75840275C80475C90275CA8D75CB34227584007598D6
:2000EB00702275840075CFE922758400759A4075F801759D7C2275840075E88022758400C4
:20010B0075D49C2275840075D1032275840F75A41575A6FF75A7FF75E10675E340227584EF
:20012B000F758C677EB87F0BEE24FFFCEF34FFFD8C068D07EC4D70F0E58C30E7FB75970102
:20014B002275A8B0221200AB1200B21200E61200ED1200F412010112010812010F1201168B
:20016B0012012912014C22D2A3A20292A0A202B392A1A20192A200000000D2A40000000095
:20018B000000000075840F85C88275840000000000C2A400000000000000000000000022FC
:2001AB00AF82C201A2049202C007120172E582D00720E7EEC2A3A20492A0A204B392A1A21C
:2001CB000392A275840F8FC875840000000000D2A4000000000000000000000000C2A47534
:2001EB00840F75C8FF758400D2A300000000000000000000000022C2A4D2A5D2A0D2A1755E
:20020B00840F75C8FF7584007F00BF0200504EEF24FF9205C201A2059202C007120172E555
:20022B0082D00720E4E9C203A205920475823FC0071201ABC203A20592047582401201ABB9
:20024B00C203A20592047582B81201ABC203A20592047582C01201ABD0070F80AD22AF8247
:20026B0053073F74404FF582C203A20692041201AB22AF8253070774B84FF582C203A2078B
:20028B0092041201AB227F00A20892078F82C00712027DA2089206758200120269D0077EA7
:2002AB0000D203A2089204758200C007C0061201ABD006D0070EBE400040E60FBF080040E7
:2002CB00C722AF82BF2000400CEF24804007EF24E0F582800BBFB0057582608003758200BA
:2002EB00221202CDE58275F005A424A1FE741535F0FF8E828F83E493FDD203A20992048DD2
:20030B0082C007C0061201ABD006D0078E828F83A3E493FDD203A20992048D82C007C0066D
:20032B001201ABD006D0078E828F83A3A3E493FDD203A20992048D82C007C0061201ABD02B
:20034B0006D0078E828F83A3A3A3E493FDD203A20992048D82C007C0061201ABD006D00719
:20036B008E828F83A3A3A3A3E493FFD203A20992048F821201ABD203A2099204758200124A
:20038B0001ABD203A20992047582001201ABD203A20992047582001201AB22AF8275FFA5A4
:2003AB00EF24F7402CEF14FEC2078E82C00612027DC206758200120269D006D2078E82127E
:2003CB00027DD206758200120269752400C2008022BF09028003300009D2008F991099130E
:2003EB0080FB74F82524920AA20A92098F821202EC052422AE82AF834389015389FDEE4F3E
:20040B00601975FFA5C28CC28D758A58758C9ED28C308DFD1EBEFF011F80E322AE82AF83B2
:20042B004389025389FEC28CC28D758AE7758CE7D28CEE4F600F75FFA5108D0280FB1EBE85
:20044B00FF011F80ED22C2879000121203FFD28790001E12042722C20B900028120427209C
:20046B008711900050120427308702D20B900032120427227F007E003087FD900028C007D5
:20048B00C006120427D006D007308709EF2FFD74014DFF8003EF2FFF2087FD0EBE080040AD
:2004AB00D78F8222120451120462300B5A12047FE582F52612047FAF82C00712047FE58213
:2004CB00F52712047FAE82C00612047FAD82D006D007AB26E4FCFAEF2BFBEA3CFCAA277FC7
:2004EB0000EA2BFBEF3CFC7F00EE2BFBEF3CFC7F00EBB5050BECB50707752501C2B0800C89
:20050B00752502D2B08005752500D2B022AF8274F855BC450FF5BC8FBBD2EC0020ECFDE546
:20052B00102425F8A6BFE5112425F8A6BE22AE82AF83E52B7008FAFB7C807D3F804474016D
:20054B00B52B0A7A007B007C007D4080357402B52B0A7A007B007C807D4080267403B52BB8
:20056B000A7A007B007C007D4180177404B52B0A7A007B007C807D4180087A007B007C0096
:20058B007D3F8E828F83C005C004C003C002121450A882A983AEF0FFC000C001C006C007ED
:2005AB0090851F75F01B743A121290A882A983AEF0FFE58124FCF581D002D003D004D005DD
:2005CB00C002C003C004C005888289838EF0EF1214ABAC82AD83AEF0FFE58124FCF5818C2B
:2005EB00828D838EF0EF221204AF750F06751004751103758201120518A286E433FF8F2A50
:20060B0022AE82AF838E05C2A3759B0230F9FD8F9B30F9FD8D9B30F9FD850F9B30F9FDC266
:20062B00FF10FF0280FBD2A322AE82AF838E05C2A3759B0330F9FD8F9B30F9FD8D9B30F959
:20064B00FD759B0030F9FDC2FF10FF0280FBD2A3859B82227E007F007C007D00750FAA8C26
:20066B00828D83C007C006C005C00412060CD004D0058C828D83C005C004120634AB82D00A
:20068B0004D005D006D007BBAA02801AC006C0077486C0E07417C0E0120E0FE58124FCF5CC
:2006AB0081758200802EC005C004C004C0057497C0E07417C0E0120E0FE58124FCF581D026
:2006CB0004D0050CBC00010D8C068D0774E02D508B75820122AE337F00AC327D008531351E
:2006EB008F368530378F38AA2F7B0074012AF539E43BF53AAA2E7B000ABA00010BC006C05F
:20070B0007C004C005C035C036C037C038C039C03AC002C00374A2C0E07417C0E0120E0FDC
:20072B00E58124F2F58122AE337F00AC327D0085313B8F3C85303D8F3EAA2F7B0074012A71
:20074B00F53FE43BF540AA2E7B000ABA00010BC006C007C004C005C03BC03CC03DC03EC01B
:20076B003FC040C002C00374C6C0E07417C0E0120E0FE58124F2F58122E530540360028014
:20078B0005758201800375820022E58214F52EE50F14F52F851030851131851232851333CB
:2007AB00227401B525687F0075FFA5EF242EF9870F852C82852D83C00712060CD00774014E
:2007CB00252CF52CE4352DF52D74E0252D5005E4F52CF52D0FBF060040CE7F0175FFA5EFA8
:2007EB002425F9870F852C82852D83C00712060CD0077401252CF52CE4352DF52D74E02524
:20080B002D5005E4F52CF52D0FBF060040CE2274EAC0E07417C0E0120E0F15811581E4F5C3
:20082B0041F542C3E541952CE542952D40030209B4854182854283A3A3A3A3A3120634ADE6
:20084B00827C00854182854283A3A3A3A3C005C004120634AB827A00854182854283A3A31D
:20086B00A3C003C002120634A8827900854182854283A3A3C001C000120634AF828F437539
:20088B004400854182854283A3120634AF827E0074012FF545E43EF54685418285428312FA
:2008AB000634AF82D000D001D002D003D004D0057E000FBF00010EC005C004C003C002C0AA
:2008CB0000C001C043C044C045C046C007C0067433C0E07418C0E0120E0FE58124F2F58119
:2008EB00740A2541F582E43542F583120634AF827E00854182854283A3A3A3A3A3A3A3A31A
:20090B00A3C007C006120634AC827D00854182854283A3A3A3A3A3A3A3A3C005C00412065A
:20092B0034AB82D004D0057A00EB2DF582EA3CF583752B06120539AA82AB83ACF0FD85414C
:20094B0082854283A3A3A3A3A3A3A3C005C004C003C002120634A9828945754600854182F5
:20096B00854283A3A3A3A3A3A3120634A982D002D003D004D00589007900C002C003C00440
:20098B00C005C045C046C000C0017456C0E07418C0E0120E0FE58124F4F581740B2541F568
:2009AB0041E43542F54202082E22C023C0E0C0F0C082C083C007C006C005C004C003C002AC
:2009CB00C001C000C0D075D000C2CF74C7B5340DE53304F5337534001205F28006E534FF60
:2009EB0004F53474C42533500BE53204F5327533001207AC74C425325009E531FF04F531FE
:200A0B0075320074E825315009E52EFF04F52E753100E52F20E00674F9252F500E74015537
:200A2B002FFFBF010C74F9252F5006E52E24E240497401552FFFBF010674F9252F500BE539
:200A4B002F20E00C74F9252F5006E52E24E3402A7401B52F2EAF2EC007120784AE82D007E6
:200A6B007D00741A2EFEE43DFD7C00C3EE9FED64808CF063F08095F05009E52FFF04F52F11
:200A8B00752E00740CB52F09E530FF04F530752F00D0D0D000D001D002D003D004D005D0FB
:200AAB0006D007D083D082D0F0D0E0D02332309807859947D20CC29832AE82AF838E048FF3
:200ACB00051EBEFF011FEC4D6020C2A7854882854983C007C006120427D2A78548828549E9
:200AEB0083120427D006D00780D3227493C0E07418C0E0120E0F15811581C208120291D29A
:200B0B000812029175FFA57401B525028003020C68AF297E00AC287D00EC2EF582ED3FF561
:200B2B0083752B06120539AC82AD83AEF0FFC007C006C005C004120732AA267B00C002C008
:200B4B000374D5C0E07418C0E0120E0FE58124FCF581AA277B00C002C00374E3C0E07418F3
:200B6B00C0E0120E0FE58124FCF581D004D005D006D007C007C006C005C004E4C0E0C0E00F
:200B8B007440C0E0C0E08C828D838EF0EF1213D7AB82E58124FCF581D004D005D006D00750
:200BAB00EB601274F3C0E07418C0E0120E0F15811581020C43C007C006C005C004E4C0E054
:200BCB00C0E0C0E07440C0E08C828D838EF0EF1213D7AB82E58124FCF581D004D005D00647
:200BEB00D007EB60117401C0E07419C0E0120E0F158115818042E4C0E0C0E07480C0E0742C
:200C0B003FC0E08C828D838EF0EF1213D7AF82E58124FCF581EF60117409C0E07419C0E08C
:200C2B00120E0F15811581800F7412C0E07419C0E0120E0F158115817401B52A117422C056
:200C4B00E07419C0E0120E0F15811581800F742EC0E07419C0E0120E0F158115819001F443
:200C6B001203FFC208120291D208120291200C03020B0F743AC0E07419C0E0120E0F1581DC
:200C8B001581C20C7548DC754905900032120AC422743EC0E07419C0E0120E0F15811581EB
:200CAB0075FFA57401B525581206E0A286E433F54A754B00AD297C00AA287B00EA2CF58207
:200CCB00EB3DF583752B06120539AA82AB83ACF0FD85274C754D00AE267F00C04AC04BC09E
:200CEB0002C003C004C005C04CC04DC006C0077484C0E07419C0E0120E0FE58124F4F5810D
:200D0B009001F41203FF300C97743AC0E07419C0E0120E0F15811581C20C7548DC7549055C
:200D2B00900032120AC42275FFA57461B54712754820754903900032120AC4120C9C020DDF
:200D4B00B57462B54711754858754902900032120AC4120AF680537464B5471175489075ED
:200D6B004901900032120AC412081A803D746DB5471D7548C8754900900032120AC474C177
:200D8B00C0E07419C0E0120E0F15811581801B7548D0754907900032120AC47416C0E074F3
:200DAB001AC0E0120E0F1581158122120150758400120202C208120291D208120291D28639
:200DCB00750F0675101775110D7512327513007582161207957548E8754903900064120ADD
:200DEB00C47422C0E0741AC0E0120E0F1581158175FFA5100C028003120D329001F41203C0
:040E0B00FF80ED2255
:2015A100000000000000005F00000007000700147F147F14242A7F2A1223130864623649F7
:2015C1005522500005030000001C2241000041221C00082A1C2A0808083E080800503000DF
:2015E100000808080808003030000020100804023E5149453E00427F400042615149462124
:2016010041454B311814127F1027454545393C4A4949300171090503364949493606494921
:20162100291E003636000000563600000008142241141414141441221408000201510906A5
:20164100324979413E7E1111117E7F494949363E414141227F4141221C7F494949417F09D2
:201661000901013E414151327F0808087F00417F41002040413F017F081422417F404040E6
:20168100407F0204027F7F0408107F3E4141413E7F090909063E4151215E7F091929464665
:2016A1004949493101017F01013F4040403F1F2040201F7F2018207F6314081463030478D3
:2016C1000403615149454300007F4141020408102041417F000004020102044040404040F2
:2016E100000102040020545454787F484444383844444420384444487F3854545418087E4A
:20170100090102081454543C7F0804047800447D40002040443D00007F10284400417F40D8
:20172100007C041804787C0804047838444444387C14141408081414187C7C0804040848F4
:2017410054545420043F4440203C4040207C1C2040201C3C4030403C44281028440C5050B9
:20176100503C4464544C44000836410000007F0000004136080008082A1C08081C2A080817
:20178100000705070002204552524F3A206D656D3D2530356400022069203D202530356421
:2017A1000020253032642F253032642F3225303364207C20253032643A253032643A25305B
:2017C1003264207C000120253032642F253032642F3225303364200220253032643A2530A7
:2017E10032643A253032640A0009200A496D7072696D696E646F20616D6F7374726173202E
:201801006E6F207465726D696E616C2E0A5072657373696F6E65207175616C7175657220CE
:201821007465636C61207061726120736169722E0A00253032642F253032642F32253033E5
:2018410064207C20253032643A253032643A25303264207C0020556D69203D2025326420F3
:201861002525207C2054656D70203D2025326420B043207C204C757A203D2025332E303224
:20188100662056207C204368757661203D2025750A0009200A496D7072696D696E646F202C
:2018A1006461646F73206E6F20474C43442E0A5072657373696F6E65207175616C717565D7
:2018C10072207465636C61207061726120736169722E0A0003205552203D2025326420255A
:2018E1002500042054656D70203D2025326420B0430005204D7569746F20636C61726F0059
:201901000520436C61726F00052045736375726F0005204D7569746F2065736375726F0A2C
:2019210000062053656D20636875766100062043686F76656E646F0A0009200A0009200A58
:20194100496D7072696D696E646F206461646F73206E6F207465726D696E616C2E0A5072D0
:20196100657373696F6E65207175616C71756572207465636C612070617261207361697224
:201981002E0A0020556D69203D20253264202525207C2054656D70203D2025326420B04384
:2019A100207C204C757A203D2025332E3032662056207C204368757661203D2025750D0017
:2019C10009200A4D454E553A0A61202D204C656974757261206E6F207465726D696E616C3D
:2019E1000A62202D204C656974757261206E6F20474C43440A64202D20496D7072696D6552
:201A010020616D6F737472617320636F6C6574616461730A0009200A44454641554C540A1F
:0B1A21000009200A53544152540A00EF
:200E0F00C00E85810EE50E24FDF8868318868218E493A3B42577C20DC20EC20FC210C21115
:200E2F00C21279087700C213E493A324C64017240A50157005B50802D212D211FAE775F0D3
:200E4F000AA42AF780E2240A2430B46C04D20D80D7B46804D20E80D0B47303020EA7B4642D
:200E6F0006121181020F03B47506121181020F23B4630518E6188017B47803020EE2B4669A
:200E8F0003021037B42E0679097700809B6006121273020E1F02128DC083C08286F0188695
:200EAF008318868218301119C212C082C08312156E6007A31508E50870F412125ED083D003
:200ECF008212156E6006A312127380F5D082D083020E1F120EFA200E0C120EFA300D061240
:200EEF000EFA120EFA121285020E1FE6121263E618021264ED30E71CD210E9F42401F920E9
:200F0F000E12EAF43400FA300D0AEBF43400FBECF43400FC200E10300D08EB7024EC7021B2
:200F2F00C20DEA701CD20EE97017201314301109E5086005150812125E7430121273020E40
:200F4F001FC082C08312119B301160790A300D1DEB54F0703619EB540F703019EA54F0700F
:200F6F002A19EA540F702419EF54F0701E7905200E0BEF540F701419EE54F0700E7903EEA4
:200F8F00540F700719ED54F0700119E508A210994019F508C003C002C007C006C00512120B
:200FAF005ED005D006D007D002D003301019C003C002C007C006C005742D121273D005D090
:200FCF0006D007D002D003200E40300D2CC005C006C0078A82EBF583121263E58312126471
:200FEF00E582121263E582121264D0E0F582121263E582D083D08280058D828E83EF121293
:20100F0064E583121263E58380038D82EE121264E582121263E582121264121285D083D055
:20102F008230130122020E1F30110EE508D39509F50850287508008023E6547FFA188603F4
:20104F0008AE82AF83901BF87D07E4932BA3E4933A5003A3DDF48D098E828F83C000121198
:20106F0063C082C083EFB47E02801940112482FDC3EA33FAEB33FBEC33FCDDF48006F4244C
:20108F007F12136175F01BE4F8FFFEFD901B8CE933F9EA33FAEB33FBEC33FC5017E4932D44
:2010AF00D4FD7401933ED4FE7402933FD4FF74039338D4F8A3A3A3A3D5F0D4E47C50FBFA45
:2010CF00F9E509232354FC8883121361ED29D4F50DEE3AD4F50CEF3BD4F50BE5833CD4F59F
:2010EF000A92D5D083D082D000121163C000C3749E9F5005D000020E37C082121361D082BB
:20110F0030D50FE92401F9E43AFAE43BFBE43CFC40E2D213120F2320110CE5096008121156
:20112F00537003D509F4E5096015742E1212737800D20F08E8121153121264E8B509F4D0BB
:20114F0000020E1F14C31392D5240AF9E720D501C4540F22E618F9E618FC33E9339210FFD2
:20116F006003430480E618FBE618FA7900C20ED20D22E6F9FD18200E12AA01E6F918300DE8
:20118F000AAC02AB01E6FA18E6F91822E975F06484FE740AC5F084C445F0FD300E0122EA9F
:2011AF00540FF9901A2C932DD4FDE94410933ED4FEEAC4540FF9901A4C932DD4FDE94410AF
:2011CF00933ED4FEE94420933400D4FF200D0122EB540FF9901A7C932DD4FDE94410933E1A
:2011EF00D4FEE94420933FD4FFE43400FAEBC4540FF9901AAC932DD4FDE94410933ED4FE38
:20120F00E94420933FD4FFE94430933AD4FAEC540FF9901AEC7B00121231ECC4540FF9908B
:20122F001B3C932DD4FDE94410933ED4FEE94420933FD4FFE94430933AD4FAE94440933BB2
:20124F00D4FB22742030120274301212731508E50870F022C4540F7003300F19D20F249068
:20126F00D43440D4C083C082C000F5821203A6D000D082D08322200FFC7430021273D00E01
:01128F00223C
:201A2C00005612682480369248046016722884400002050710121517202325283033353882
:201A4C000096928884807672686460565248444000408122630445862768095091327314F7
:201A6C000000000101020202030304040405050600367208448016528824609632680440D4
:201A8C00005510662176328742985308641975300006131926323945525865727885919819
:201AAC0000765228048056320884603612886440008571574328140086715743291400869E
:201ACC000004091419242934384348535863687200010203040506070809101112131415F8
:201AEC000016324864809612284460769208244000724416886032057749219365381082F0
:201B0C0000775533108866442199775432108865001633506783001734506784011834511D
:201B2C0000000000000001010101010102020202005612682480369248046016722884402F
:201B4C0000540963187227813691450054096318004387307417610448913579226609534E
:201B6C0000683605734210794715845221895826000205081013161821242629323437404D
:201B8C00000000500000002500005012000025060050120300255601501278002506390018
:201BAC0012531900567609002888040014440200072201000461000052300000261500006C
:201BCC00630700008103000091010000950000004800000024000000120000000600000060
:1A1BEC000300000001000000010000007DC5DDC334C2E0BE38BD86BBE4B991
:20129000121333BC000302147DEF60FA30D502B2D1E583B4FF03021493E582B4FF030214C7
:2012B00093258340072482400B02147D2483145003021493F582EA8DF0A4A8F0EA8EF0A43B
:2012D00028F8E435F0F9EB8DF0A428E935F0F9E433CA8FF0A429F9EA35F0FAEBF88EF0A46D
:2012F00029F9EA35F0FAE433FBEC8DF0A429F9EA35F0FAE43BFBE88FF0A42AFAEB35F0FB15
:20131000E433CCFD8EF0A42AFAEB35F0FBE43CFCED8FF0A42BFBEC35F0FC20E7031213A45A
:0313300002145C48
:20133300AA82AB83A2F73392D1F5826002D2F7ACF0E58124F9F8E6FD08E6FE0886F008E61D
:0E135300A2F73392D5F5836002D2F7AFF022F5
:06006000E478FFF6D8FD74
:201361006040F82582500274FFF582E824F8501ECCCBCAF9E4CC24F85014CBCAF9E4CB2494
:20138100F8500BCAF9E4CA24F8500379002224086010F8C3EC13FCEB13FBEA13FAE913F947
:0313A100D8F1225E
:2013A4007804EC7011E58224F8500AF582E4C9CACBFCD8EF22EC7820058220E713D5820148
:1313C40022C3E933F9EA33FAEB33FBEC33FCD8EA15822256
:20003E007900E94400601B7A00901C06780175A200E493F2A308B8000205A2D9F4DAF27542
:02005E00A2FFFF
:2013D700FFA8811818121425D2D133E6400730E70B7582012220E70675820022C2D1121435
:1013F70007E97003F5822230D101B3E433F5822285
:200066007800E84400600A790175A200E4F309D8FC7800E84400600C7900900001E4F0A396
:04008600D8FCD9FACF
:201407007901AA82E68F82B5821318E6B5F00E18E6B5830918E68A82B58202790022B480DC
:201427000FE5F0700AE5837006E58270027F00EFB6801518B6001018B6000B18B600060844
:09144700080876002208080822BA
:0C145000E4AC83AB82FAF9748E021593B1
:20145C00B98003EA13B34010EA2401FAE43BFBE43CFC50047C800582BC000EBB000BBA00D4
:20147C0008E4F5F0F583F58222A2D1E582138CF092F78B838A8222E4F583F58275F080F494
:0F149C00A2D11322E4F583F58275F0C0747F228C
:2014AB0012133330D502B2D1BF0009BC00030214A0021493BC000302147DE583B4FF0BE5FC
:2014CB0082B4FF030214A002147DE582B4FF03021493C395835007247F400B02147D248063
:2014EB00145003021493F582C3ED9AEE9BEF9C40111582C3EA33F9EB33FAEC33FBE433FCF6
:20150B008005E4CCCBCAF9C08275F019C3E99DEA9EEB9FEC9400D5F002802D400EE99DF921
:20152B00EA9EFAEB9FFBEC9400FCC3B3E833F8E58233F582E58333F583C3E933F9EA33FA81
:20154B00EB33FBEC33FC80C4B3E4F938FAE43582FBE43583FCD082500405827C801213A426
:03156B00021474F3
:0D00310075814D12159DE582600302002EC1
:1C156E0020F71430F6148883A88220F507E6A88375830022E280F7E49322E0228C
:13158A00FCABF0AA83A982749EC2D1F5821213A402145C08
:04159D007582002231
:00000001FF
